:02000000B72D1A
:06000600000000000800EC
:10000C000F3083120313FC004730FD00FD0B0C284E
:0A001C00FC0B0C2800000000080097
:0E002600213083120313FD00FD0B1728080084
:100034007B15FB1F24280130F300F201F101F001CC
:08004400FA0DF20CFF30080078
:10004C00FB14FB1F3028FF30F300F200F100F0002E
:08005C00FA0DF20CFF30080060
:0E006400F201F101F001F801F3010030080093
:08007200FA1FF2130030080030
:10007A0083120313DB1B43288612442886165B1B54
:10008A004828061249280616DB1A4D2886114E28DA
:10009A0086155B1A52280611532806154518572843
:1000AA00061458280610861403208610DB195F28C8
:1000BA008612602886165B196428061265280616B9
:1000CA00DB18692886116A2886155B186E280611BE
:1000DA006F28061545187328061474280610861406
:1000EA0003208610451C7B2806207C281320080044
:1000FA0083120313FA017308031D7A147708031D88
:10010A00FA147A080319C928033A031994287A18A1
:10011A009128F61FC728C528F21FC528C7287208C4
:10012A008039FA00F21376088039F6137A06031931
:10013A00A2287A080319C528C72877087302031961
:10014A00A928031CBD28C128760872020319B02801
:10015A00031CBD28C128750871020319B728031C9E
:10016A00BD28C128740870020319C9280318C128B8
:10017A00FA080319C728C528FA080319C528C72881
:10018A0003140800031008000314031508000800EC
:06019A00FB15FF30080018
:1001A00083120313FB017308031D77080319272922
:1001B00072087606FA007708F3077E30031CE428FD
:1001C000F30203182A29E728F302031C2D297208D9
:1001D000F8007108FC007008FD00F817F61703100E
:1001E000F201F101F0011830A0007D1C0129740812
:1001F000F00775080318750FF10776080318760FD6
:10020000F207F20CF10CF00CF80CFC0CFD0C0310D6
:10021000A00BF528F21B1129F80DF00DF10DF20DD0
:10022000F3037B1B701C2329F81F2329F00A0319F1
:10023000F10A0319F20A031D2329F20CF10CF00C48
:10024000F30A03192A29FA1FF21300302F2901306B
:1002500032202F29023026202F2904301A200000B6
:02026000080094
:100262000E3083120313FD00FD0B35290000080038
:1002720083120313FD01F801700803190034740698
:10028200FA00FA1BFD09FB01F41F4929F409F40ADB
:10029200F01F4D29F009F00A70087404FA00FA1BE5
:1002A20071297408F802F00D700DF80D7408F80742
:1002B200F00D0630FC00700DF80D74087018F8028D
:1002C200701CF807F00DFC0B5C29701CF8077B18FA
:1002D2007F29FD1F0034F009F00AF809F80A0034FA
:1002E200F41F7C29F01B79297008F800F0016A29B3
:1002F200F001F00A0034F009FB0A5229F80A7408E6
:100302007802031D6A29F801F00AF01F6A29FF34F6
:020312000800E1
:100314008312031345105908DB003D2045140800DF
:10032400831203135908F2007208F100F20A5A0802
:10033400F000DA0A700884000008F00071088400F4
:10034400700880007108840000080319AA299629FE
:060354005908F00008004A
:10035A00A0017208031DC2297108F2007008F10099
:10036A00F001A0157208031DC2297108F200F101FB
:10037A00A011201672080319D0292008F302031DC0
:10038A00031CD4290310F21BD829F00DF10DF20D2C
:10039A00F30BC829D4290130FC003220DB290230B2
:0E03AA00FC001A20DB290430FC00392008007A
:0E03B8008312031347088A00460882000800DB
:1003C60083120313D701D8014C08D3004D08D4007B
:1003D6004E08D5004F08D6005608FF3A031DFD29E2
:1003E6005508FF3A031DFD295408FF3A031DFD2950
:1003F6005308FF3A031D072A5008D9002130DA00B6
:1004060092210330F000E02B0130D100D51F162ACF
:1004160080305506F0007008D500D10A50088400D7
:100426002D308000D00A0030F0005606031D252A24
:1004360070085506031D252A70085406031D252A33
:100446005308003A031D2E2A5008D9002630DA0038
:100456009221F001E02B5608FF3A031D3C2A55086D
:10046600003A031D3C2A5408003A031D3C2A53084F
:10047600003A031D462A5008D9002830DA00922196
:100486005108F000E02B0030F4000030F500003099
:10049600F6007F30F7005308F0005408F1005508C5
:1004A600F2005608F3007D20013003180030F000FA
:1004B60070080319792A5308F0005408F10055080A
:1004C600F2005608F3000030F4000030F50020304A
:1004D600F6008230F700D0207008D3007108D400EF
:1004E6007208D5007308D600D803462A0030F400F7
:1004F6000030F5002030F6008230F7005308F00097
:100506005408F1005508F2005608F3007D2001302A
:10051600031C0030F00070080319AC2A5308F000E1
:100526005408F1005508F2005608F300CD30F400E7
:10053600CC30F5004C30F6007B30F700D020700848
:10054600D3007108D4007208D5007308D600D80A03
:10055600792AFF305305F800FF305405F9007F3043
:100566005505FA0000305605FB007808F4007908B6
:10057600F5007A08F6007B08F700F40DF50DF60D88
:10058600F70D741000305305F00000305405F100EB
:1005960000305505F200FF305605F3007008D30011
:1005A6007108D4007208D5007308D6007408530485
:1005B600F00075085404F10076085504F200770837
:1005C6005604F3007008D3007108D4007208D500F1
:1005D6007308D6007F305602F0007008D200013052
:1005E600D6007008F4005308F0005408F1005508CE
:1005F600F2005608F30074080319082BF00DF10DEC
:10060600F20DF30D7010FF3EFF2A7008D30071083B
:10061600D4007208D5007308D6005608303EF000A4
:100626005008840070088000D00A80305806F00018
:100636008030013A7002031C292B8030063AF00004
:10064600803058067002031C292B302B500884007A
:100656002E308000D00A0130D7000630D200520872
:10066600003A03198E2BD6015308F0005408F10006
:100676005508F2005608F300F00DF10DF20DF30DDA
:100686007010F00DF10DF20DF30D70105308F00718
:1006960054080318540FF10755080318550FF207AD
:1006A60056080318560FF3077008D3007108D400D4
:1006B6007208D5007308D6005308F0005408F100FC
:1006C6005508F2005608F300F00DF10DF20DF30D8A
:1006D60070107008D3007108D4007208D500730832
:1006E600D6005608303EF00050088400700880009E
:1006F600D00A5708003A031D8C2BD8035808003A35
:10070600031D8C2B500884002E308000D00A013047
:10071600D700D203322BFF30500784000008303A4E
:10072600031D972BD0038E2BFF3050078400000843
:100736002E3A031D9F2BD0035808003A0319DC2BD1
:100746005008840065308000D00A80305806F000DA
:100756008030003A70020318B82B500884002D3000
:100766008000D00A5808003CD8005808D2008030D3
:10077600093AF0008030580670020318CE2B0A3072
:10078600F4005208F00039213030F0075008840098
:1007960070088000D00A0A30F4005208F0003921AF
:1007A6007808F0003030F0075008840070088000A8
:0C07B600D00A500884008001F001080007
:1007C200F32B803083120313CC00062CC030CC00F4
:1007D200062C9430CC00062CD430CC00062C803071
:1007E200CC00062C831203134C08013A0319E22BA6
:1007F2004C08023A0319E72B4C08033A0319EA2B77
:100802004C08043A0319ED2BF02B4D03F0004C0871
:10081200F0077008CC0045147008DB003D2045103D
:0A0822004E08DB003D2045140800DD
:10082C00282C803083120313CC003B2CC030CC001E
:10083C003B2C9430CC003B2CD430CC003B2C803067
:10084C00CC003B2C831203134C08013A0319172CD0
:10085C004C08023A03191C2C4C08033A03191F2CA0
:10086C004C08043A0319222C252C4D03F0004C089B
:10087C00F0077008CC007008DB003D204510CF015C
:10088C004F084E07840000080319542C4F084E07DC
:10089C0084000008D9008A21CF0A462C4514080090
:1008AC00831203137408003A031D712C7508003A67
:1008BC00031D712C7608003A031D712C7708003A41
:1008CC00031D712CFF30F000FF30F1007F30F2007F
:1008DC00FF30F3000C2D8312031377080319002D3E
:1008EC0073080319032D720876068039FA00F21783
:1008FC00F617A0017208F8007108FC007008FD00E2
:10090C007408FD027508031C750FFC027608031CA5
:10091C00760FF802F801FC01FD01031C9C2C03105E
:10092C00F20CF10CF00CF80C0130A0007708F3027B
:10093C00031CA62C7E302007F3070318062DAB2CC6
:10094C007E302007F307031C092D1830FA07FD0D24
:10095C00FC0DF80DF00DF10DF20DA00D7408F00268
:10096C007508031C750FF1027608031C760FF20252
:10097C00760DA004201CC42C7D14CF2C7408F00719
:10098C0075080318750FF10776080318760AF20735
:10099C007D10FA031F307A05031DAD2C7B1B7D1CCB
:1009AC00F62C0310F00DF10DF20DA00D7408F002F1
:1009BC007508031C750FF1027608031C760FF20202
:1009CC00760D20040139FD070318FC0A0319F80AF7
:1009DC00031DF62CF80CFC0CFD0CF30A0319062D68
:1009EC00FA1FF8137808F2007C08F1007D08F0007B
:1009FC0000300B2D0130CD200B2D023032200B2D71
:0E0A0C00043026200B2D08301A2000000800B0
:100A1A0083120313CD014D084C0784000008031903
:100A2A001E2D4D084C0784000008D9008A21CD0AE2
:040A3A00102D080073
:100A3E00DC218A110A128000840AC60A0319C70A29
:080A4E00F003031D1F2D080039
:100A560083160313861006100611861106128612D7
:100A660083128610061086120612861106110620BB
:100A760006200620861506158614032086100620F5
:100A8600861403208610062086140320861006206E
:100A9600061186140320861006208614032086106D
:100AA60086118616861403208610062086120615E1
:100AB600861403208610061186140320861006204D
:100AC6008614032086100615861403208610062039
:100AD6000611861403208610861606168615061538
:0C0AE6008614032086100620451408002A
:100AF200831203137008F8007108F000F101F2018B
:100B0200F301FB01FC019630F300FA017008F100D9
:0C0B12007808F000F801F201AD210800A5
:100B1E00831203139F01C0309F042509F000700853
:100B2E0083169F051F179F1783124C08F000F00DB8
:100B3E007010F00D7010F00D701070089F041F14DF
:100B4E0031211F151F1DAD2D0000A92D1F101E08D0
:100B5E00F100F00183161E08F0040030F1040800C5
:100B6E002E26831603138601FF30850080309F00EA
:100B7E002B250130DB003D200C30DB003D20CC016D
:100B8E008F257925F630F4002830F5001C30F6005C
:100B9E008130F700D0200030F4000030F500203016
:100BAE00F6008230F70056247008C8007108C9009C
:100BBE007208CA007308CB000130CC000130CD00A2
:100BCE002C30CE0016244808CC004908CD004A0827
:100BDE00CE004B08CF003530D000E3213530CC00AD
:100BEE000D250130CC000F30CD00DF30CE00E123DB
:0A0BFE003330CC000D25C62D032E68
:100C5C0021308400243083120313F0000930C600C5
:080C6C000630C7001F25080037
:080C12004E3461344E3400340D
:020C1A000F3495
:040C1C00303400343C
:080C200049344E34463400341F
:0E0C2800543465346D34703420343D3400345F
:040C3600433400340F
:100C3A00003400340034003400340034003400340A
:100C4A0000340034003400340034003400340034FA
:02400E004A2F37
:00000001FF
