:020000000328D3
:100006003F3083120313A2000630A3005B30A40026
:100016004F30A5006630A6006D30A7007D30A800E1
:100026000730A9007F30AA006F30AB00AC01AD01EC
:100036008316860183128601FF3083168800831299
:10004600081C41280330FB000830FC007730FD0017
:10005600FD0B2B28FC0B2B28FB0B2B28081C4128FF
:1000660080302D06F00080307002031D3C280930D8
:100076002C0203184128AC0A0319AD0A081E602891
:100086000330FB000830FC007730FD00FD0B4928EB
:10009600FC0B4928FB0B4928081E60288030F0001D
:1000A60080302D067002031D5A282C08003C0318C8
:1000B60060280130AC02031CAD032C08223E8400EC
:0800C6000008860022286628CC
:02400E004A2F37
:00000001FF
