:020000000328D3
:1000060083160313870183128701FF308316880046
:100016008312081C20280330FB000830FC007730D0
:10002600FD00FD0B1428FC0B1428FB0B1428081CE0
:1000360020280130F1000030F200881D5E280330D0
:10004600FB000830FC007730FD00FD0B2828FC0B78
:100056002828FB0B2828881D3228F101F201081FE9
:1000660046280330FB000830FC007730FD00FD0B0E
:100076003A28FC0B3A28FB0B3A28081F4628023080
:10008600F1000030F20000307206031D4C280130EA
:100096007106031D5128071487105E28003072066A
:1000A600031D572802307106031D5C2807108714AC
:0A00B6005E28071087100B285F2852
:02400E004A2F37
:00000001FF
