:020000000328D3
:10000600C03083120313A200F930A300A430A40069
:10001600B030A5009930A6009230A7008230A80023
:10002600F830A9008030AA009030AB008316860114
:1000360083128601F101F20180307206F0008030F1
:100046007002031D28280A3071020318412871081E
:10005600223E8400000886000B30FB002630FC00A0
:100066005D30FD00FD0B3528FC0B3528FB0B3528D4
:1000760000000000F10A0319F20A1F281D28422871
:02400E004A2F37
:00000001FF
