:02000000662870
:1000060083120313F101F20100307202031D0D2861
:100016000A3071020318232806143530FD00FD0B43
:10002600122806100530FC00FB30FD00FD0B1928D8
:10003600FC0B192800000000F10A0319F20A072830
:020046000800B0
:1000480083120313F101F20100307202031D2E28FE
:100058000A3071020318442806149230FD00FD0B83
:100068003328000006100530FC009E30FD00FD0B13
:100078003B28FC0B3B280000F10A0319F20A282848
:0200880008006E
:10008A0083120313F101F20100307202031D4F289B
:10009A00643071020318652806146330FD00FD0BF5
:1000AA0054280000000006100530FC00CD30FD0089
:1000BA00FD0B5D28FC0B5D28F10A0319F20A492899
:0200CA0008002C
:1000CC0083160313860103201530FB004B30FC0014
:1000DC00BE30FD00FD0B7028FC0B7028FB0B70284C
:1000EC00000045201530FB004B30FC00BE30FD00FD
:1000FC00FD0B7E28FC0B7E28FB0B7E2800002420A9
:04010C0069288728AF
:02400E004A2F37
:00000001FF
